:100000000C9416090C945D090C945D090C945D091F
:100010000C945D090C945D090C945D090C945D09C8
:100020000C945D090C945D090C94072E0C94D92E48
:100030000C9450260C945D090C945D090C945D0998
:100040000C945D090C945D090C945D090C945D0998
:100050000C945D090C949D260C945D090C945D092B
:100060000C945D090C945D090C945D090C945D0978
:100070000C945D090C945D090C945D090C945D0968
:100080000C945D090C945D090C945D090C945D0958
:100090000C945D090C945D090C945D090C945D0948
:1000A0000C945D090C945D090C945D099C149F14DB
:1000B000A714AC14B114B614BB14C014C514CA14DC
:1000C000CF14D414D614D914DC14DF14E214E514BC
:1000D000E714EC14AF1BAF1BE11BE11B2E1C4C1CE7
:1000E0006D1D6D1D571CEC1CFD1CFD1C5D1D6D1D4B
:1000F0006D1D661D0D1E0D1E1F1E1F1E161E1F1EB2
:100100001F1E1F1E0D1E0D1E1B1E1F1E1F1E1B1E33
:10011000462F6D2F65306D2F6530B92FDC2F653080
:1001200033304230E200E300E000510050000F5154
:100130002C00E600E400E10064001D001B00060046
:100140001900050011001000390004001600070016
:1001500009000A000B000D000E002B0014001A000D
:100160000800150017001C0018000C0035001E00C8
:100170001F00200021002200230024002500290068
:100180003A003B003C003D003E003F004000410083
:100190005800630062004E00560000004F0000004F
:1001A000000058005B005A005200E500380059007A
:1001B0003700360057005E005D000000310034005B
:1001C0005C0033000F005700610060002800300021
:1001D0002F005F00130012005500540053002A0046
:1001E0002E002D002A00270026004B004D004A005B
:1001F0004600450044004C0043004200E000E2009D
:10020000E3000100010001000100E400E30001003F
:1002100001000100010001000100010001000100D6
:1002200001000100010001000100010001000100C6
:1002300001000100010001000100010001000100B6
:1002400001000100010001000100010001000100A6
:100250000100010001000100010001000100010096
:100260000100010001000100010001000100010086
:100270000100000001000000000001000100010079
:100280000100010001000100010001000100010066
:100290000100000001000100010001000100010057
:1002A0000100010001000100010001000100010046
:1002B0000100010001000100010001000100010036
:1002C0000100010001000100010001000100010026
:1002D0000100010001000100010001000100010016
:1002E0000100010001000100010001000100010006
:1002F00001000100010001000100010001000100F6
:1003000001000100010001000100010001000100E5
:1003100001000100010001000100010001000100D5
:1003200001000100010001000100010001000100C5
:1003300001000100010001000100010001000100B5
:1003400001000100010001000100000001000000A7
:100350000000010001000100010001000100010096
:100360000100010001000100010000000100010086
:100370000100010001000100010001000100010075
:100380000100010001000100010001000100010065
:100390000100010001000100010001000100010055
:1003A0000100010001000100010001000100010045
:1003B0000100010001000100010001000100010035
:1003C0000100010001000100010001000100010025
:1003D0000100010001000100010001000100010015
:1003E0000100010001000100010001000100010005
:1003F00001000100010001000100010001000100F5
:1004000001000100010001000100010001000100E4
:1004100001000100010001000100010001000100D4
:1004200001000000010000000000010001000100C7
:1004300001000100010001000100010001000100B4
:1004400001000000010001000100010001000100A5
:100450000100010001000100010001000100010094
:100460000100010001000100010001000100010084
:100470000100010001000100010001000100010074
:100480000100010001000100010001000100010064
:100490000100010001000100010001000100010054
:1004A0000100010001000100010001000100010044
:1004B0000100010001000100010001000100010034
:1004C0000100010001000100010001000100010024
:1004D0000100010001000100010001000100010014
:1004E0000100010001000100010001000100010004
:1004F00001000100010001000100000001000000F6
:1005000000000100010001000100010001000100E4
:1005100001000100010001000100000001000100D4
:1005200001000100010001000100010001000100C3
:1005300001000100010001000100010001000100B3
:1005400001000100010001000100010001000100A3
:100550000100010001000100010001000100010093
:100560000100010001000100010001000100010083
:100570000100010001000100010001000100010073
:100580000100010001000100010001000100010063
:100590000100010001000100010001000100010053
:1005A0000100010001000100010001000100010043
:1005B0000100010001000100010001000100010033
:1005C0000100010001000100010001000100010023
:1005D0000100000001000000000001000100010016
:1005E0000100010001000100010001000100010003
:1005F00001000000010001000100010001000100F4
:1006000001000100010001000100010001000100E2
:1006100001000100010001000100010001000100D2
:1006200001000100010001000100010001000100C2
:1006300001000100010001000100010001000100B2
:1006400001000100010001000100010001000100A2
:100650000100010001000100010001000100010092
:100660000100010001000100010001000100010082
:100670000100010001000100010001000100010072
:100680000100010001000100010001000100010062
:100690000100010001000100010001000100010052
:1006A0000100010001000100010000000100000044
:1006B0000000010001000100010001000100010033
:1006C0000100010001000100010000000100010023
:1006D0000100010001000100010001000100010012
:1006E0000100010001000100010001000100010002
:1006F00001000100010001000100010001000100F2
:1007000001000100010001000100010001000100E1
:1007100001000100010001000100010001000100D1
:1007200001000100010001000100010001000100C1
:1007300001000100010001000100010001000100B1
:1007400001000100010001000100010001000100A1
:100750000100010001000100010001000100010091
:100760000100010001000100010001000100010081
:100770000100010001000100010001000100010071
:100780000100000001000000000001000100010064
:100790000100010001000100010001000100010051
:1007A0000100000001000100010001000100010042
:1007B0000100010001000100010001000100010031
:1007C0000100010001000100010001000100010021
:1007D0000100010001000100010001000100010011
:1007E0000100010001000100010001000100010001
:1007F00001000100010001000100010001000100F1
:1008000001000100010001000100010001000100E0
:1008100001000100010001000100010001000100D0
:1008200001000100010001000100010001000100C0
:1008300001000100010001000100010001000100B0
:1008400001000100010001000100010001000100A0
:100850000100010001000100010000000100000092
:100860000000010001000100010001000100010081
:100870000100010001000100010000000100010071
:100880000100010001000100010001000100010060
:100890000100010001000100010001000100010050
:1008A0000100010001000100010001000100010040
:1008B0000100010001000100010001000100010030
:1008C0000100010001000100010001000100010020
:1008D0000100010001000100010001000100010010
:1008E0000100010001000100010001000100010000
:1008F00001000100010001000100010001000100F0
:1009000001000100010001000100010001000100DF
:1009100001000100010001000100010001000100CF
:1009200001000100010001000100010001000100BF
:1009300001000000010000000000010001000100B2
:10094000010001000100010001000100010001009F
:100950000100000001000100010001000100010090
:10096000010001000100010001000100010001007F
:10097000010001000100010001000100010001006F
:10098000010001000100010001000100010001005F
:10099000010001000100010001000100010001004F
:1009A000010001000100010001000100010001003F
:1009B000010001000100010001000100010001002F
:1009C000010001000100010001000100010001001F
:1009D000010001000100010001000100010001000F
:1009E00001000100010001000100010001000100FF
:1009F00001000100010001000100010001000100EF
:100A000001000100010001000100000001000000E0
:100A100000000100010001000100010001000100CF
:100A200001000100010001000100000001000100BF
:100A300001000100010001000100010001000100AE
:100A4000010001000100010001000100010001009E
:100A5000010001000100010001000100010001008E
:100A6000010001000100010001000100010001007E
:100A7000010001000100010001000100010001006E
:100A8000010001000100010001000100010001005E
:100A9000010001000100010001000100010001004E
:100AA000010001000100010001000100010001003E
:100AB000010001000100010001000100010001002E
:100AC000010001000100010001000100010001001E
:100AD000010001000100010001000100010001000E
:100AE0000100000001000000000001000100010001
:100AF00001000100010001000100010001000100EE
:100B000001000000010001000100010001000100DE
:100B100001000100010001000100010001000100CD
:100B200001000100010001000100010001000100BD
:100B300001000100010001000100010001000100AD
:100B4000010001000100010001000100010001009D
:100B5000010001000100010001000100010001008D
:100B6000010001000100010001000100010001007D
:100B7000010001000100010001000100010001006D
:100B8000010001000100010001000100010001005D
:100B9000010001000100010001000100010001004D
:100BA000010001000100010001000100010001003D
:100BB000010001000100010001000000010000002F
:100BC000000001000100010001000100010001001E
:100BD000010001000100010001000000010001000E
:100BE00001000100010001000100010001000100FD
:100BF00001000100010001000100010001000100ED
:100C000001000100010001000100010001000100DC
:100C100001000100010001000100010001000100CC
:100C200001000100010001000100010001000100BC
:100C300001000100010001000100010001000100AC
:100C4000010001000100010001000100010001009C
:100C5000010001000100010001000100010001008C
:100C6000010001000100010001000100010001007C
:100C7000010001000100010001000100010001006C
:100C8000010001000100010001000100010001005C
:100C9000010000000100000000000100010001004F
:100CA000010001000100010001000100010001003C
:100CB000010000000100010001000100010001002D
:100CC000010001000100010001000100010001001C
:100CD000010001000100010001000100010001000C
:100CE00001000100010001000100010001000100FC
:100CF00001000100010001000100010001000100EC
:100D000001000100010001000100010001000100DB
:100D100001000100010001000100010001000100CB
:100D200001000100010001000100010001000100BB
:100D300001000100010001000100010001000100AB
:100D4000010001000100010001000100010001009B
:100D5000010001000100010001000100010001008B
:100D6000010001000100010001000000010000007D
:100D7000000001000100010001000100010001006C
:100D8000010001000100010001000000010001005C
:100D9000010001000100010001000100010001004B
:100DA000010001000100010001000100010001003B
:100DB000010001000100010001000100010001002B
:100DC000010001000100010001000100010001001B
:100DD0000100010001000100AE000100010001005E
:100DE00001000100010001000100010001000100FB
:100DF00001000100010001000100010001000100EB
:100E000001000100010001000100010001000100DA
:100E10000100010001000153010001000100010077
:100E2000010001000100A700010001000100010014
:100E30000100010001000100010001000100A90002
:100E4000BB000000010000000000010001000100E3
:100E5000010001000100010001000100010001008A
:100E6000010000000100010001000100010001007B
:100E7000010001000100010001000100010001006A
:100E8000BC000100B20001000100010001000100EE
:100E90000100AA00A80001000100010001000100FA
:100EA0000100010032190A00047F3F1F64321464FC
:100EB0003214783C1E1E140A052223252628292ACE
:100EC0002C2D2F3032333536383A3B3D3E404243AD
:100ED0004547494A4C4E5051535557595A5C5E60EC
:100EE00062646668696B6D6F71737577797B7D7FFE
:100EF00081838587898A8C8E90929496989A9C9EFD
:100F00009FA1A3A5A7A8AAACAEAFB1B3B4B6B8B918
:100F1000BBBCBEBFC1C2C3C5C6C7C9CACBCCCDCE80
:100F2000D0D1D2D2D3D4D5D6D7D7D8D9D9DADADB63
:100F3000DBDBDCDCDCDCDCDDDDDDDDDCDCDCDCDCEF
:100F4000DBDBDBDADAD9D9D8D7D7D6D5D4D3D2D22E
:100F5000D1D0CECDCCCBCAC9C7C6C5C3C2C1BFBE16
:100F6000BCBBB9B8B6B4B3B1AFAEACAAA8A7A5A381
:100F7000A19F9E9C9A98969492908E8C8A89878540
:100F800083817F7D7B79777573716F6D6B6968661F
:100F90006462605E5C5A5957555351504E4C4A49F1
:100FA00047454342403E3D3B3A3836353332302F99
:100FB0002D2C2A292826252322FFAA7F554000010F
:100FC0000101010101010101020202020202020209
:100FD00002030303030303030304040404040404DB
:100FE000050505050506060606060707070707089F
:100FF000080808090909090A0A0A0B0B0B0C0C0C52
:101000000D0D0D0E0E0E0F0F0F10101111111212EB
:1010100013131414151516161717181819191A1A68
:101020001B1B1C1D1D1E1E1F2020212222232424C9
:10103000252626272829292A2B2C2D2D2E2F303105
:101040003232333435363738393A3B3C3D3E3F4017
:101050004142434445464748494A4C4D4E4F505102
:101060005354555658595A5B5D5E5F6162646566BC
:1010700068696B6C6D6F7072737577787A7B7D7E43
:101080008082838587888A8C8E8F91939596989A93
:101090009C9EA0A2A3A5A7A9ABADAFB1B3B5B7BAAB
:1010A000BCBEC0C2C4C6C9CBCDCFD1D4D6D8DBDD7F
:1010B000DFE2E4E7E9EBEEF0F3F5F8FAFDFF120307
:1010C0004D0065006C006F00640079003900360047
:1010D00000000A0359004D0044004B0000000403C7
:1010E000090409023B00020100A0FA090400000102
:1010F00003010100092111010001224000070581BF
:101100000308000A0904010001030000000921117D
:1011100001000122BC000705820320000A12011011
:1011200001000000084D59964D0100010200010523
:10113000010902A10185020901A10005091901297E
:10114000051500250195057501810295017503813D
:10115000010501093009311581257F950275088146
:101160000609381581257F950175088106050C0A49
:1011700038021581257F950175088106C0C00501DB
:101180000980A101850319012AB700150126B700BE
:10119000950175108100C0050C0901A10185041994
:1011A000012AA002150126A002950175108100C038
:1011B00005010906A1018505050719E029E71500C4
:1011C00025019508750181020507190029EF150011
:1011D000250195F07501810205081901290595057C
:1011E00075019102950175039101C005010906A1E0
:1011F00001050719E029E71500250195087501810A
:10120000029501750881010507190029FF150026BF
:10121000FF00950675088100050819012905950547
:1012200075019102950175039101C00011241FBE43
:10123000CFEFDAE0DEBFCDBF04B603FE27C080915A
:10124000B6039091B703A091B803B091B90387306A
:10125000904BA740B04BD1F41092B6031092B70355
:101260001092B8031092B90314BE84B7877F84BF6D
:101270000FB6F894A8958091600088618093600013
:10128000109260000FBEE0E0F8E3099511E0A0E0E5
:10129000B1E0ECE2F4E602C005900D92AE3CB1077D
:1012A000D9F723E0AEECB1E001C01D92A63BB20736
:1012B000E1F70E94472B0C9414320C94000081E05B
:1012C000089581E008950C94610908950C946509CE
:1012D0001F93CF93DF9300D000D01F92CDB7DEB71E
:1012E00049835A836B8330915A0289819A813111E3
:1012F00014C0662359F0222349F00E944623182F78
:10130000682F89819A810E94EF2203C00E941A23CC
:10131000182F69817A81812F04C00E944623698138
:101320007A810F900F900F900F900F90DF91CF91D7
:101330001F910C94490AFC01262F40815181628142
:10134000738184810C946809CF93DF93EC0160E092
:101350000E949B09BE01DF91CF910C9466090E9407
:10136000E9260E947E24811102C00E942E250E943F
:10137000350A0E946F160C94680C0C94640C089546
:101380000E94FB1D0E94BF092FEF84E39CE02150C7
:1013900080409040E1F700C000000C94C3260F93FA
:1013A0001F93CF93DF93EC0161E00E949B098C01B6
:1013B000BE010E9463098823A9F1BE01C8010E94F1
:1013C000D015882379F1BE01C8010E941D1788231A
:1013D00049F1BE01C8010E946F17882319F1BE01AF
:1013E000C8010E949A188823E9F0BE01C8010E9432
:1013F00085148823B9F08A81882369F001158CE56A
:10140000180731F00F3D1C4531F40E942E250AC00B
:101410000E94C00907C0CE01DF91CF911F910F91AB
:101420000C945F0980E0DF91CF911F910F91089597
:1014300008950C94180A81E00895CF93C82F0E9454
:101440001B0A882381F0C095C0FF02C0469A01C0E4
:101450004698C1FF02C0479A01C04798C2FF02C028
:101460002D9A01C02D98CF9108953E9A469A3F9AA1
:10147000479A259A2D9A0895CF93C82F0E94190A4A
:101480008C2F0E941D0ACF91089580E090E008956E
:1014900008952CE6829FC0011124FC0129E0729F6F
:1014A000E00DF11D1124E60FF11DEE0FFF1FEC5DA5
:1014B000FE4F859194910895880F991FFC01EC557A
:1014C000F14F859194910895CF93DF930E94490A3B
:1014D0000E947C0BEC018115904508F041C0C115BC
:1014E00080E4D80708F0D1C0C83ED10510F5C03E51
:1014F000D10508F0FDC0C83AD10578F4C53AD10548
:1015000008F0A2C0C130D10509F4F2C008F4EEC061
:10151000C430D10508F0ECC0E9C0CF3BD10508F4D8
:101520009BC0C03CD10508F4E1C0CE01805C9109AC
:101530009EC0C11590E2D90758F4C11521E0D20729
:1015400008F0D6C0C03FD10508F4D0C0D065D0C0E7
:10155000C11580E3D80708F08EC0CE019F7087C008
:10156000C11595E5D90708F043C0C11524E5D20798
:1015700008F0A2C0C11582E5D80708F5C11591E5AC
:10158000D90708F085C0CE0174E0969587957A95C5
:10159000E1F783709C2F937021E030E002C0220FAE
:1015A000331F9A95E2F73C68382BCF70C695C695E5
:1015B00080E2C89FE0011124C22BD32B99C09E0169
:1015C000237033278C2F86958695C115D34508F057
:1015D00064C0C1E0D0E002C0CC0FDD1F2A95E2F765
:1015E00020E2829FC0011124C82BD92BDC6880C067
:1015F000C11529E5D207A0F4C11588E5D80708F080
:1016000060C0C11596E5D90708F070C08C2F0E9404
:10161000100C8F71C82FD0E0DC2FCC27D06268C0AF
:10162000C1152AE5D20708F451C0CE0190568115A4
:10163000904208F05BC08D2F8F710E94100CDD2747
:10164000D0628F71D82B54C0C55AD0E0C65ADE4F35
:10165000C881D0E0D0644CC0C85AD0E0CC0FDD1FA8
:10166000C45DDE4F0990D881C02DD46441C00E9472
:101670005C0AEC013DC0CE019927D3FF03C0EC0109
:10168000D86C36C0EC01D06C33C0DF70D06A30C08B
:10169000DC2FCC27C16FD06A2BC0C1E0D0E002C0E4
:1016A000CC0FDD1F2A95E2F720E2829FC0011124B2
:1016B000C82BD92BDA681CC0DC2FCC27C46FD06AAA
:1016C00017C0DC2FCC27C06FD06A12C08C2F8F7050
:1016D0000E94100C94E0D695C7959A95E1F7CF70CB
:1016E000D0E0DC2FCC27D069C82B02C0C0E0D0E00E
:1016F000CE01DF91CF9108958238910569F1B0F460
:101700008133910509F46DC048F48932910509F4DB
:1017100063C08A32910509F469C008958533910543
:1017200009F455C089339105B9F00895833E9105B8
:1017300069F138F4803E9105B1F0823E910509F1DE
:101740000895863E9105A9F1873E9105B9F1843E41
:10175000910509F064C023C02091A70320FD4FC06C
:1017600021FD4DC008958091A70380FD44C0809164
:10177000A80380FF44C08091A70384FD42C083EE8C
:101780004DC08091A70382FF38C0F5CF8091A70399
:1017900082FD33C08091A80380FD31C0ECCF8091E1
:1017A000A80381FF32C08091A70384FD2AC087EE81
:1017B00035C08091A70383FF26C0F5CF8091A70392
:1017C00083FD21C08091A80381FD1FC0ECCF8091D3
:1017D000A70385FD1CC01DC08091A70385FD19C00E
:1017E00016C08091A70386FD16C017C08091A7037D
:1017F00086FD13C010C089E311C082EE0FC080EED9
:101800000DC080E00BC086EE09C084EE07C089E2FF
:1018100005C085E303C08AE201C081E390E008953A
:101820009091A70392FF0DC0282F2871283019F43A
:10183000877F846006C0282F2471243011F48B7FA9
:10184000886093FF0DC0282F2871283119F4877EF6
:10185000846106C0282F2471243111F48B7E8861A5
:101860002091A80320FF0DC0382F3871383019F4AB
:10187000877F816006C0382F3171313011F48E7F3F
:10188000886021FF0DC0282F2871283119F4877E28
:10189000816106C0282F2171213111F48E7E88616B
:1018A00094FD877E0895E82FF0E0EE0FFF1FE15BC7
:1018B000FC4F808191810895089580EA8A95F1F71F
:1018C000089508950C94610C0C94620C0C94610CB6
:1018D0000C94660CF894E82FE295EF70F0E031A1DB
:1018E000282F2F7081E090E001C0880F2A95EAF739
:1018F000982F9095932391A392A1892B82A37894FA
:101900000895CF93DF93CDE5D1E089910E946A0CD1
:1019100081E0C636D807C9F7C6E6D1E089910E94B2
:101920006A0C81E0C237D807C9F7E7E3F3E0AFE418
:10193000B3E08FE493E0119211921D921D928E17E5
:101940009F07C9F78CE00E94420DDF91CF910C9464
:10195000AF094F925F927F928F929F92AF92BF9208
:10196000CF92DF92EF92FF920F931F93CF93DF936B
:101970009DE5E92E91E0F92E00E010E0C0E0CC24D6
:10198000C394D12C3FE4A32E33E0B32E4701D701FB
:101990008C91F894E82FE295EF70F0E021A18F7020
:1019A000A60102C0440F551F8A95E2F7CA01922F83
:1019B000982B91A392A18095892382A378940E9469
:1019C0005D0CA601002E02C0440F551F0A94E2F7D9
:1019D000BA0160957095E7E3F3E086E6482E81E072
:1019E000582ED0E020813181D2017D902D01872DAC
:1019F00082958F7090E0DC0190968C9190E0B72DED
:101A0000BF7002C095958795BA95E2F780FD04C036
:101A1000C901842B952B03C0C9018623972328175E
:101A2000390719F091838083D1E03296AE16BF0654
:101A3000C9F6EFEFEE1AFE0AD4018C910E946A0CEF
:101A4000CD2B0F5F1F4F0930110509F09FCF2C2FB1
:101A50004CE06FE473E087E393E00E94430D0E9443
:101A6000BD098C2FDF91CF911F910F91FF90EF90C7
:101A7000DF90CF90BF90AF909F908F907F905F90BE
:101A80004F9008950895FF920F931F93CF93DF9384
:101A9000F82E092F162FD72FC42F222349F081E0CB
:101AA0008093D0010E9482269093CF018093CE0133
:101AB0008091D0018823D9F08091CE019091CF01FF
:101AC0000E948E26069798F0EF2DF02FA12FBD2FA4
:101AD00080E090E04C2F50E08417950734F421917A
:101AE00031912D933D930196F7CF1092D001DF9164
:101AF000CF911F910F91FF900895EF92FF920F9356
:101B00001F93CF93DF938B01682F11110AC04423D9
:101B100029F0E82FF0E0E254F04F6491762F862F01
:101B200075C0212F30E0E82FF0E0442321F0E2548B
:101B3000F04FE491F0E046E0049FC0011124CFEFA4
:101B4000D0E0BE010E94C3304BEA4603C001479F6C
:101B5000900D1124800F911D800F911D982F990FCA
:101B6000890FAE01421B530B4E9FD0014F9FB00D0A
:101B70005E9FB00D11249B2F189FA0011124452FAB
:101B800055278E01041B150B0E9FA0010F9F500DB2
:101B90001E9F500D11247E01E81AF108E29E80017B
:101BA000E39E100DF29E100D1124212F3327C21B2E
:101BB000D30BCE9F9001CF9F300DDE9F300D1124AF
:101BC00062307105A9F048F46115710569F0613062
:101BD0007105C9F48B2F752F0DC06430710581F02C
:101BE00058F06630710579F47E2F8B2F932F0DC03E
:101BF000832F7B2F9E2F09C08E2F7B2F952F05C003
:101C00008E2F732F02C07E2F852F692FDF91CF91EA
:101C10001F910F91FF90EF90089541E00E947D0D7C
:101C2000089508950E940D0E0895CF93DF93762FA7
:101C3000E901682F842F0E94120E798368838A83BA
:101C4000DF91CF91089580916703282F269530E08A
:101C50002115310519F48170826005C02B323105E0
:101C600024F08170846580936703089588E090E094
:101C70000C94B531CF92DF92EF92FF926B017C0111
:101C80000E94230EB701A60188E090E0FF90EF903C
:101C9000DF90CF900C94D331E7E6F3E083E08083CC
:101CA00011828FEF828383831482608171818281AC
:101CB00093810C943A0E8091670380FF02C0869551
:101CC000089580E0089590916B03933018F49F5F1E
:101CD00090936B03882351F06091670370916803C0
:101CE0008091690390916A030C943A0E089581E003
:101CF0000C94630E90916B03992319F0915090937B
:101D00006B03882351F060916703709168038091A1
:101D1000690390916A030C943A0E089581E00C9443
:101D20007A0E70E00C947F16609108018091670331
:101D300080FF0AC08091070123E0829FC001112427
:101D400084599C4F0C94910E8091090190910A0145
:101D5000891780F7E82FF0E09F01220F331FE20F71
:101D6000F31FE459FC4F1182108212828F5FF0CF73
:101D70009091670390FF16C09091090120910A018C
:101D8000921770F4E92FF0E0DF01AA0FBB1FEA0FF2
:101D9000FB1FE459FC4F8183608342839F5FF0CF38
:101DA0000C94940E0895CF93DF9300D01F92CDB77B
:101DB000DEB79091670390FF0AC09E012F5F3F4FEF
:101DC0000E94150E4B8169818A810E94B80E0F9086
:101DD0000F900F90DF91CF910895CF93DF93EC0197
:101DE000EC81F0E0E754F14F4491E7E6F3E06281E3
:101DF00081810E94D30E8C818F5F8C83DF91CF9184
:101E00000895CF93DF93EC01E7E6F3E0438162812D
:101E10008C810E94D30E8C818F5F8C83DF91CF9158
:101E200008950F931F93CF93DF9300D01F92CDB7E8
:101E3000DEB78C018091D10181110AC09E012F5F14
:101E40003F4F4FEF6FEF0E94150E8A818093D101B3
:101E5000F8018481813051F028F0823061F44091A2
:101E6000D1010AC08091D10140E007C06091D10149
:101E700040E080E003C040E080E060E00E94B80EF7
:101E8000F801848190E0019663E070E00E94D73011
:101E900084830F900F900F90DF91CF911F910F913E
:101EA0000895AF92BF92CF92DF92EF92FF920F937D
:101EB0001F93CF93DF9300D01F92CDB7DEB7182FBB
:101EC000F62E042FE22E9091670390FF6DC0E92F4C
:101ED000E695AE2FB0E0AE58BE4F8C9180933502A0
:101EE0009E7F923061F49E012F5F3F4F812F0E94B1
:101EF000150E4B8169818A810E94B80E43C08230E1
:101F000019F400916A033EC0863019F410916803F9
:101F100039C08930D9F38931A9F5E9518E2F817003
:101F2000D82EE695F0E0E754F04FA590B490C12C80
:101F3000BB2460910B01C61618F52C2D30E0A29E33
:101F4000C001A39E900DB29E900D112470E00E94DE
:101F5000C330812FD11002C0860F01C0861B909123
:101F60000901290F311DA901440F551F240F351FE9
:101F700024593C4F402F6F2D0E94150EC394D9CF8A
:101F80000E94940E10936803F092690300936A0311
:101F9000EE2051F0609167037091680380916903AE
:101FA00090916A030E943A0E0F900F900F90DF916C
:101FB000CF911F910F91FF90EF90DF90CF90BF9046
:101FC000AF900895E7E6F3E09181282F4381628185
:101FD00088E0890F0C94510F81E00C94E20FE7E642
:101FE000F3E09181282F4381628188EF890F0C945F
:101FF000510F81E00C94EF0FE7E6F3E0628128E0F7
:10200000620F08F46FEF282F438181810C94510FE8
:1020100081E00C94FC0FE7E6F3E0628128E0621BAC
:1020200008F460E0282F438181810C94510F81E0F6
:102030000C940B10E7E6F3E0438128E0420F08F42C
:102040004FEF282F628181810C94510F81E00C9415
:102050001A10E7E6F3E0438128E0421B08F440E071
:10206000282F628181810C94510F81E00C942910FA
:1020700020E00C94510FFF920F931F93CF93DF93A7
:10208000EC01F12C0FEF10E060910B01F616F0F46B
:10209000809109012F2D30E0280F311DC901880FD3
:1020A000991F280F391F24593C4F70E0C8010E9426
:1020B000D730962F8C8140916A0360916903F99E15
:1020C000800D11240E94150EF394DECF0E94940E11
:1020D0009A818C8190FF02C08F5F01C081508C83F8
:1020E000DF91CF911F910F91FF900895AF92BF9212
:1020F000CF92DF92EF92FF920F931F93CF93DF93D4
:10210000FC01828180FF02C00FEF01C001E010E0FE
:1021100042E1A42E80910B01181708F043C0809172
:102120000901C12ED12CE601C80FD11DCE01880FA7
:10213000991FC80FD91FC459DC4F198218821A82FF
:1021400034E0E32EF12CB12C8091D3018B0D83313F
:102150002CF06A2D0E94B530892F05C087FF03C07F
:1021600090910B01890F082E000C990BC816D90607
:1021700091F480916A038E9DA0018F9D500D1124D2
:1021800055954795559547959E01609169038091B6
:1021900068030E94150EB00EF1E0EF1AF108A1F6E7
:1021A0001F5FB8CF0E94940E8091D301013031F4AB
:1021B000811102C080910B01815007C090E001960F
:1021C00060910B0170E00E94D7308093D301DF91C2
:1021D000CF911F910F91FF90EF90DF90CF90BF9024
:1021E000AF900895CF938091090190910A018917CA
:1021F00070F4E82FF0E09F01220F331FE20FF31F6E
:10220000E459FC4F1182108212828F5FF0CFC0E040
:1022100060910B01C617C0F5EC2FF0E070E0CF0124
:102220000E94D73020910901820F2091D201022E05
:10223000000C330B90E0E217F307CCF0209106017D
:10224000022E000C330B2E173F078CF09C01220F3F
:10225000331F820F931F9C0124593C4F40916A0306
:1022600060916903809168030E94150E0BC0FC0108
:10227000EE0FFF1F8E0F9F1FFC01E459FC4F1182D0
:1022800010821282CF5FC4CF0E94940E209105016C
:102290008091D201820F8093D20190910601920F1A
:1022A0009093060119165CF4082E000C990B4091CE
:1022B0000B0150E041505109841795071CF02195FE
:1022C00020930501CF9108958F929F92AF92BF9274
:1022D000CF92DF92EF92FF920F931F93CF93DF93F2
:1022E0008C01FC014481C42FD0E09E01DE010E94DC
:1022F0001B319B01AC010E9431316B017C01E0E29A
:10230000F0E0EC1BFD0BA5E5B0E09B01AC010E94E9
:1023100031314B015C019F01DF010E9413319B01B0
:10232000AC010E943C319B01AC012C0D3D1D4E1DAA
:102330005F1DC501B4010E94EB30C22FD22F2A329B
:1023400028F4F3E02F9F900111240DC025E530E023
:102350002C1B3109C901880F991F280F391F37FF1E
:1023600002C02F5F3F4F35952795C22FC095F12CA6
:1023700085E5E82EED1A80910B01F816C8F4F1FC02
:1023800002C08E2D01C08D2F909109012F2D30E0BC
:10239000290F311DA901440F551F240F351F245942
:1023A0003C4F4C2F609169030E94150EF394E3CFCC
:1023B0000E94940EF8018481811102C091E003C053
:1023C000803219F49FEF9093040190910401890FDA
:1023D000F8018483DF91CF911F910F91FF90EF90CF
:1023E000DF90CF90BF90AF909F908F9008950F9304
:1023F0001F93CF93DF93EC0100E010E080910B017D
:10240000282F30E00217130724F590910901980155
:10241000290F311DA901440F551F240F351F2459C1
:102420003C4F869590E04C81081719071CF4442313
:1024300031F002C0411103C040916A0301C040E085
:1024400060916903809168030E94150E0F5F1F4F12
:10245000D5CF0E94940E8C8190E0019681709927CF
:102460008C83DF91CF911F910F9108958F929F924E
:10247000AF92BF92CF92DF92EF92FF920F931F9392
:10248000CF93DF93FC01B280948081E0848300E0ED
:1024900015E05BE4A52E88248394EE24EA94F12CC5
:1024A0007BE4C72ED12C80910B01081708F08FC058
:1024B000C02FD0E01C9FF0011D9FF00D1124EC52A5
:1024C000FE4F911003C01382128267C02381222322
:1024D00089F1215023833481332319F09A2D921BE3
:1024E00001C0922F80916A031C9FF0011D9FF00D87
:1024F0001124EC52FE4F899FC0011124B6010E94A5
:10250000C3306283211104C0332311F01482A382EB
:1025100022E02B1508F441C01C9FF0011D9FF00D17
:102520001124EC52FE4F80916803808380916903EF
:10253000818333C00E9490318230914074F582E0F3
:102540008B1530F40E949031B7010E94D73002C041
:10255000809168031C9FF0011D9FF00D1124EC5227
:10256000FE4F808322E02B1558F40E949031209179
:1025700069032695622F70E00E94D730820F02C057
:10258000809169031C9FF0011D9FF00D1124EC52F6
:10259000FE4F81831282A3828482809109019E0171
:1025A000280F311DC901880F991F280F391F245981
:1025B0003C4F1C9FF0011D9FF00D1124EC52FE4F6B
:1025C0004281618180810E94150E0F5F6CCFDF9187
:1025D000CF911F910F91FF90EF90DF90CF90BF9020
:1025E000AF909F908F900C94940EE7E6F3E080817B
:1025F0008E7F808360817181828193810E943A0EF7
:10260000109236022FEF80E792E0215080409040F8
:10261000E1F700C000000C94940E6091670366958A
:1026200070E04BE050E08CE091E00E94A031892BFB
:1026300019F481E0809336020E94822690932F0243
:1026400080932E0208959091670390FF35C091709A
:10265000811102C0926006C08B3210F0946502C0F6
:10266000880F982B90936703662351F0609167035E
:10267000709168038091690390916A030E943A0EF9
:1026800060916703669570E04BE050E08CE091E06C
:102690000E94A031892B19F01092360202C00E94CC
:1026A0000D1381E08093310240916A0360916903C8
:1026B000809168030C9438100895682F90916703F7
:1026C000969581E0890F8B3208F081E00C942313FA
:1026D00081E00C945D13682F9091670396958FEFBE
:1026E000890F09F48AE20C94231381E00C946B1394
:1026F00061E00C942313E7E6F3E08081816080833E
:1027000086950C9478138091670380FD0C94F512E4
:102710000C947B1360E00C9423138091340281119C
:102720002EC00E947E24811104C00E942E250E948A
:102730004C0E0E94360E609367037093680380937B
:10274000690390936A036E7F61F40E944C0E0E94AD
:10275000360E6093670370936803809369039093C8
:102760006A030E94230E109236028091670380FF55
:1027700003C086950E948A1381E0809334020895F5
:102780000F931F93CF93DF9380913602882309F430
:102790009CC080913502E0916703E695E81BE093C9
:1027A0003002823049F4F0E0EB54F14FE491CE2F47
:1027B000D0E00DEE1EE059C0863049F4F0E0EE5452
:1027C000F14FE491CE2FD0E001E01FE04EC0893000
:1027D00051F4E695F0E0E155F14FE491CE2FD0E0D1
:1027E0000BE310E142C08F3051F4E695F0E0E45580
:1027F000F14FE491CE2FD0E006E710E136C08531ED
:1028000049F4F0E0E755F14FE491CE2FD0E002EF2C
:1028100010E12BC08831D9F0833239F4E7EAFEE0C9
:10282000C591D49101E11FE020C08432A9F0853226
:10283000C1F48E2F63E00E94A930E92FF0E0EC553F
:10284000F14FE491CE2FD0E006E312E10EC0C8E2D2
:10285000D0E004E611E109C0C4EFD1E007EF11E1D7
:1028600004C0C0EDD7E001E11EE080913102882371
:1028700089F0109231020E9482269E0120953095A7
:10288000820F931F90932F0280932E021092330297
:102890001092320280912E0290912F020E948E2679
:1028A0008C179D0790F0E0912E02F0912F02CE0F31
:1028B000DF1FD0932F02C0932E028EE292E0F80128
:1028C000DF91CF911F910F910994DF91CF911F91CB
:1028D0000F910895882311F0FA0101C0FB010994BA
:1028E000CF93DF93C82FD62F0E945B0E8C1740F03A
:1028F0000E945B0E8D1720F4DF91CF910C9468132A
:102900008C2FDF91CF910C9478130F931F93CF935B
:10291000FB01C281CC2309F463C08C010E94C72350
:102920008272F801E35CFC45E431F10508F059C01E
:10293000EA5AFF4F0C940D310E94831306C045E7FD
:1029400053E168E673E10E946A14C0E04AC048E6B9
:1029500053E165E773E1F7CF49EF5FE06CEE7FE0AD
:10296000F2CF4CEE5FE069EF7FE0EDCF47E150E161
:1029700068E070E1E8CF48E050E167E170E1E3CF63
:1029800045E350E166E270E1DECF46E250E165E307
:1029900070E1D9CF4EE85EE067E77EE0D4CF47E74D
:1029A0005EE06EE87EE0CFCF81E017C065E082E0B8
:1029B00010C068E086E00DC06EE089E00AC064E106
:1029C0008FE007C067E185E104C088E106C062E2EC
:1029D00089E10E947014B9CF83E20E947813B5CFC9
:1029E000C1E08C2FCF911F910F9108950E947E24FA
:1029F000811102C00E942E250E94AF248093A20361
:102A0000282F26952695269530E02630310524F08E
:102A1000877088628093A2038091A20380FF04C024
:102A200086958695869501C080E00C9405162091C8
:102A3000A203822F869586958695482F50E04530D3
:102A4000510554F48F5F982F990F990F990F822F8A
:102A50008770892B8093A2038091A2038160809369
:102A6000A2030E94B3248091A20386958695869541
:102A70000C9405168091A203982F9695969596959D
:102A8000A1F0915E990F990F990F8770892B809310
:102A9000A203887F91E009F490E08091A20390FB6B
:102AA00080F98093A2030E94B3248091A2038695AB
:102AB000869586950C9405168091A20380FD13C01F
:102AC00081608093A203813019F489E08093A2038E
:102AD0008091A2030E94B3248091A20386958695DB
:102AE00086950C94051608958091A20380FF08C076
:102AF0008E7F8093A2030E94B32480E00C9405167D
:102B000008958091A20380FD0C9474150C945C15BB
:102B10009091A203892F8695869586958F5F8F71F8
:102B20009770863038F4880F880F880F892B809330
:102B3000A20302C09093A2038091A203887F91E038
:102B400009F490E08091A20390FB80F98093A203A6
:102B50000E94B3248091A2038695869586950C9455
:102B60000516863008F085E09091A2039770282F13
:102B7000220F220F220F922B9093A203987F21E025
:102B800009F420E09091A20320FB90F99093A20316
:102B90000C9405160E94B1158091A2030C94B324E5
:102BA0009C01FB018281882349F12E3BFCE53F0714
:102BB000C9F040F42C3BECE53E0769F02D3B3C4569
:102BC00061F00895203C9CE5390791F070F0213CBC
:102BD0003C4589F0089585E001C080E00E94CA1557
:102BE00080E008950E943A15FBCF0E941715F8CF98
:102BF0000E948115F5CF0E948815F2CF81E00895DB
:102C0000269A2E9808952E980895CF92DF92EF92EB
:102C1000FF92CF93C82F863050F4811109C0809164
:102C200080008F7D809380000E94031606C0C5E05F
:102C3000809180008062809380002C2F30E0AFEF85
:102C4000BFEF0E941B3125E030E040E050E00E94E1
:102C5000EB30B42FA32F922F8827492F5A2F6B2F99
:102C60007727CA014C3724E1520728F469E070E065
:102C70000E94C33029C0DB01CA018A50974DAF4F73
:102C8000BF4F6627782F892F9A2F25EF38E241E032
:102C900050E00E94EB3069017A01CA01B9010E943B
:102CA00099309B01AC01C701B6010E949930BB2746
:102CB000A92F982F872F009721E0A207B10511F0C7
:102CC000BC0102C06FEF7FEF70938B0060938A00AE
:102CD000CF91FF90EF90DF90CF90089508950E94DC
:102CE000001682E28093800089E1809381008FEF5B
:102CF0009FEF90938700809386000C94F6146A9A55
:102D00002EB12B7F3EB134604FB7F894FC01CB015C
:102D1000880F991F680F791F6E0F7F1FE617F7073F
:102D200089F0819198E03EB9000000C087FF2EB97C
:102D3000880F000000C000C000C02EB900C09A95E6
:102D400091F7ECCF4FBF8FE594E00197F1F700C00A
:102D5000000008950F931F93CF93DF93C42FD22FBA
:102D6000FC0182818823C9F0409339020E948226A7
:102D7000909338028093370280E28C0F883008F0FD
:102D800057C0C77081E001C0880FCA95EAF7DF918C
:102D9000CF911F910F910C946B1B809139024813B6
:102DA00030C080913702909138020E948E26883C74
:102DB000910538F510E21D0FCD17B9F080E28C0FA8
:102DC000883040F4C77081E001C0880FCA95EAF7E7
:102DD0000E94721B183028F581E09D2F977001C06A
:102DE000880F9A95EAF70E946B1B802F0E94581B50
:102DF0001830F0F4D77081E001C0880FDA95EAF757
:102E00000AC080E28C0F883098F4C77081E001C05E
:102E1000880FCA95EAF7DF91CF911F910F910C941B
:102E2000721B802FDF91CF911F910F910C94581B33
:102E3000DF91CF911F910F9108950F939C01CB01CA
:102E4000243F4CE5340731F188F4293DFCE53F0788
:102E5000D9F02A3D4CE5340779F1283D3C45A9F5E8
:102E600006E221EE41EE68ED7CE52BC0263FFCE555
:102E70003F07E1F0A8F0273F3C4539F507E225EE92
:102E800046EE67EF7CE51DC007E225EE45EE69EDF5
:102E90007CE517C006E221EE40EE64EF7CE511C050
:102EA00007E225EE44EE65EF7CE50BC006E221EE7D
:102EB00042EE66EF7CE505C008E221E045EE6AEDF2
:102EC0007CE50E94AA1680E008C0FC01828188236C
:102ED00019F01092390201C081E00F910895CF934B
:102EE000DF93EC01FB018281882309F41FC1C2300A
:102EF000FCE5DF0708F41BC1C6319CE5D90738F0B3
:102F00009E012B5F3C452930310508F010C10E941D
:102F100091249093A8038093A703C031ECE5DE07CA
:102F200009F4C3C008F041C0C8308CE5D80709F4E3
:102F30009AC0F0F4C430ECE5DE0709F487C068F409
:102F4000C2308CE5D80709F477C0C330DC4509F0FE
:102F5000E3C08091A703826076C0C630ECE5DE074F
:102F600009F46EC008F07BC08091A70388606BC035
:102F7000CC308CE5D80709F485C068F4CA30ECE59C
:102F8000DE0709F474C008F079C00E94FB1D80912F
:102F9000A703806858C0CE308CE5D80709F476C006
:102FA00008F07FC08091A7038BC0CC3FECE5DE0723
:102FB00009F44FC018F5C3318CE5D80709F47DC07A
:102FC00078F4C131ECE5DE0709F473C0C231DC45A9
:102FD00009F0A2C00E94FB1D8091A7038F7733C028
:102FE000C5318CE5D80709F472C008F486C0CB3F20
:102FF000DC4509F091C08091A8033EC0C115FDE5F4
:10300000DF0709F45FC058F4CE3F9CE5D90709F407
:1030100044C008F43FC08091A80382602DC0C23034
:10302000FDE5DF0709F475C008F45DC0C330DD4578
:1030300009F072C080E06EC08091A703816003C078
:103040008091A70380618093A70366C08091A70346
:1030500011C08091A80382608093A8035DC0809115
:10306000A7038062F0CF8091A7038064ECCF8091AA
:10307000A70388608460E7CF8160EECF8091A703CB
:103080008E7FE1CF8091A7038D7FDDCF8091A70355
:10309000877FD9CF8091A80318C08091A8038D7F26
:1030A000DBCF8091A7038F7ECECF8091A7038F7D4A
:1030B000CACF8091A7038F7BC6CF8091A703877F5C
:1030C0008B7FC1CF8091A8038D7F8E7FC5CF8091EC
:1030D000A70382FB222720F991E0922790FB82F937
:1030E00090FB83F9B0CF8091A803982F90959170B1
:1030F0008E7F892B90FB81F9AFCF0E94FB1D8091C1
:10310000A70387FB222720F991E0922790FB87F9FC
:103110009ACF81E00E9430258091A7039091A80367
:103120000E94A2240E94FB1D80E001C081E0DF918B
:10313000CF910895CF93DF9386319C4541F5EB0104
:103140000E94C723982F8A8120911701309118017E
:10315000882379F09A7A81E009F480E080933A023A
:10316000911102C069E201C065E3C9010E94CB254B
:103170000AC080913A02811102C069E201C065E390
:10318000C9010E94D6250E94152480E001C081E07B
:10319000DF91CF9108959093400280933F0208956C
:1031A000E0913F02F0914002309721F00190F081D0
:1031B000E02D099480E00895E0913F02F0914002F3
:1031C000309799F020912B01222359F02091A703E9
:1031D00027FF07C0DC012C9111962C93119725E055
:1031E0002C930280F381E02D09940895E0913F0231
:1031F000F0914002309739F022E0DC012C930480FA
:10320000F581E02D0994089520913D0230913E0210
:103210002817390771F090933E0280933D02E091A8
:103220003F02F0914002309721F00680F781E02DB7
:103230000994089520913B0230913C0228173907E8
:1032400071F090933C0280933B02E0913F02F09139
:103250004002309721F00084F185E02D0994089513
:1032600085B7806885BF85B7806885BF089581E090
:1032700008950C94371908950C943B190C943B193C
:103280000C943E190C943B190C9442190C943B1964
:103290000E9430190E9446190C9444190E94792604
:1032A0000E94810C0E94FD260E94F6140E948D133C
:1032B0000C9440197F928F929F92AF92BF92CF92BF
:1032C000DF92EF92FF920F931F93CF93DF93CDB7CF
:1032D000DEB72A970FB6F894DEBF0FBECDBF0E94AF
:1032E0003C190E943B190E94A90C0E9439198111B6
:1032F00011C08FEF89838A831B820E94822681609E
:10330000782F9D838C8349815A816B818D810E94A6
:10331000121A4FC042E4A42E42E0B42E00E010E0A6
:10332000702E802F0E94530C6C01F50181909190BA
:103330005F01882699268114910431F40F5F1F4F95
:103340000C30110569F7D5CF8091060381FD0E94ED
:103350005C0C80E0EE24E394F12C94012E213F21BB
:10336000232B09F18E837F82CE20DF2081E0CD28C0
:1033700009F480E088870E9482268160782F9A87EE
:1033800089874E815F8168858A850E94121A000FA5
:10339000111FF801EE5BFD4F80819181E826F9262F
:1033A000F182E08206C08F5FEE0CFF1C8930A9F627
:1033B000C5CF0E94C0130E946E160E94AC280E94C6
:1033C000D018909141028917C9F00E94D0188093BB
:1033D00041022A960FB6F894DEBF0FBECDBFDF9133
:1033E000CF911F910F91FF90EF90DF90CF90BF9002
:1033F000AF909F908F907F900C943C0A2A960FB6C6
:10340000F894DEBF0FBECDBFDF91CF911F910F911A
:10341000FF90EF90DF90CF90BF90AF909F908F90F4
:103420007F900895CF93DF93CDB7DEB72B970FB67C
:10343000F894DEBF0FBECDBF4F83588769877A8768
:103440008B87DE01119686E0FD0111928A95E9F7DE
:1034500085E0FE01379601900D928A95E1F749814A
:103460005A816B817C818D819E810E94B4202B9634
:103470000FB6F894DEBF0FBECDBFDF91CF91089598
:10348000FC01808191810E9488230895CF93882335
:1034900009F4A4C0C82F8238C1F40E94D01881FD5D
:1034A0009DC069E380911701909118010E94CB257E
:1034B0000E9415242FEF81EE94E02150804090402F
:1034C000E1F700C0000069E319C0833801F50E94EC
:1034D000D01880FD83C063E5809117019091180199
:1034E0000E94CB250E9415242FEF81EE94E02150FD
:1034F00080409040E1F700C0000063E58091170133
:10350000909118010E94D625CF910C9415248438EF
:10351000C1F40E94D01882FD61C067E48091170158
:10352000909118010E94CB250E9415242FEF81EE67
:1035300094E0215080409040E1F700C0000067E433
:10354000DDCF8CEF8C0F813AD0F46C2F8091170176
:10355000909118010E944B25882349F06C2F80918F
:103560001701909118010E94D6250E9415246C2FF6
:1035700080911701909118010E94CB25C5CF80E260
:103580008C0F883048F4C77081E001C0880FCA955D
:10359000EAF70E94CA23B8CFEBE5EC0FE33040F422
:1035A000F0E0E553FE4F808190E0CF910C94041938
:1035B000E8E5EC0FE73150F4F0E0EE0FFF1FE356C3
:1035C000FE4F80819181CF910C941A19C03F30F049
:1035D0008C2F0E94A127CF910C948E28CF91089513
:1035E000882309F464C0823879F40E94D01881FFDE
:1035F0005EC069E380911701909118010E94CB256C
:103600000E94152469E310C08338B1F40E94D018D9
:1036100080FF4DC063E580911701909118010E94D1
:10362000CB250E94152463E5809117019091180124
:103630000E94D6250C941524843879F40E94D01861
:1036400082FF35C067E480911701909118010E94B4
:10365000CB250E94152467E4E7CF9CEF980F913AA1
:1036600010F4682FE1CF90E2980F983050F48770F3
:1036700091E001C0990F8A95EAF7892F0E94D02323
:10368000D9CF9BE5980F933020F480E090E00C9424
:10369000041998E5980F973120F480E090E00C949D
:1036A0001A19803F20F00E9409280C948E28089552
:1036B000CF93C82F0E94461AC93349F42FEF87EEE3
:1036C00093E0215080409040E1F700C000008C2F33
:1036D000CF910C94F01A882321F00E94CA230C94F5
:1036E00015240895882321F00E94D0230C941524DA
:1036F0000895CF92DF92EF92FF920F931F93CF9393
:10370000DF937C01062FC72FFC01158112951F70D6
:10371000D281D1110E94E7230E94C023882399F00F
:10372000DD2389F08C2F807F803421F080E2800FB0
:10373000883048F082E00E945F240E94C02391E01C
:10374000D82ED92601C0D12CCC2EC2948FE0C8220D
:103750008C2D90E0FC01E659FF4F0C940D318C2F1D
:10376000807FCF70882311F0C295C07FDD2399F050
:10377000CC2309F48DC180E2800F883010F0011154
:1037800004C08C2F0E94CA2303C08C2F0E94DA230E
:103790000E9415247DC1802F0E94F01ACC2309F4C9
:1037A0009CC180E2800F883010F0011104C08C2F82
:1037B0000E94D02303C08C2F0E94E0230E94152476
:1037C0008CC18C2F807FCF70803211F0C295C07F6A
:1037D000002319F00130C9F022C0DD2371F011235C
:1037E00041F0113031F40E94FA238C2B0E94022404
:1037F00074C10E94FA238C2B1DC0112319F01130C3
:1038000009F46BC10E940B2425C0DD2321F0163082
:1038100008F063C10EC0153008F05FC11BC0DD2386
:1038200061F0112331F0F701858180FF31C18F7084
:1038300085838C2F0E946B1B50C1112359F00933D3
:1038400009F037C1FFEF27EE83E0F15020408040C0
:10385000E1F72DC18C2F0E94721B3FC18C2F8695E2
:103860008695837019F0813061F037C1DD2321F036
:10387000802F9C2F937002C080E090E00E9404197A
:1038800034C1DD2321F0802F9C2F937002C080E093
:1038900090E00E941A1929C1802FDD2319F00E949F
:1038A000A12702C00E9409280E948E281EC18C2FC9
:1038B000837009F045C0D11114C1402F429546953F
:1038C0004770440F440F602F6F70862F90E0A0E088
:1038D000B0E0042E04C0880F991FAA1FBB1F0A94D2
:1038E000D2F704FF10C00FE010E020E030E004C089
:1038F000000F111F221F331F4A95D2F70095109514
:103900002095309503C000E010E09801C695C6955B
:10391000C370BC01CD01602B712B822B932BC23065
:1039200049F058F4C13019F00E940522DAC00E9413
:10393000F321D7C00E941722D4C00E94F121D1C028
:10394000DD2319F08C2F817001C08695882309F43E
:10395000C8C0402F429546954770440F440F602FD2
:103960006F70862F90E0A0E0B0E0042E04C0880FB6
:10397000991FAA1FBB1F0A94D2F704FF10C00FE0C3
:1039800010E020E030E004C0000F111F221F331FA1
:103990004A95D2F7009510952095309503C000E028
:1039A00010E09801C695C695C370BC01CD01602B8F
:1039B000712B822B932BC23049F058F4C13019F08F
:1039C0000E94CA228EC00E94B8228BC00E94DC22B4
:1039D00088C00E942B2285C0CF70DD2339F08C2F48
:1039E0000E945122802F0E946B1B7BC0802F0E945F
:1039F000721B8C2F0E94722274C0023F01F128F4C6
:103A0000003F41F0013FA1F03FC0033FF9F0043F08
:103A100039F13AC0DD2341F0153008F05EC08C2F3B
:103A20008F710E94972259C0163008F056C0F7CF08
:103A3000DD2339F08C2F8F710E9451224EC0DD237F
:103A4000C9F38C2F8F710E94722247C0DD2329F0A9
:103A50008C2F8F710E943C2240C00E9437223DC0B3
:103A6000DD2349F0CF718C2F0E94512263E08C2F0F
:103A70000E944A2432C081E00E945F24123068F123
:103A800082E00E945F2429C0DD2331F0112391F2EE
:103A9000802F0E94461A21C0112399F2093349F45C
:103AA0009FEFE7EEF3E09150E040F040E1F700C017
:103AB0000000802F0E94F01A10C04C2F4F70602F12
:103AC000C7010E94450A0E9462210FC04C2F4F700F
:103AD000602FC7010E94480A08C088EF8C0D84300F
:103AE00020F40E94D0180E943C0ADD20C9F00E94F8
:103AF000BC2380FD15C0F70112820E94B6230E94EC
:103B00005122C7010E94B11D0E94B623DF91CF91BF
:103B10001F910F91FF90EF90DF90CF900C94722245
:103B2000DF91CF911F910F91FF90EF90DF90CF9099
:103B300008950F931F93CF93DF93EC0168817981F0
:103B40008A810E9493238C010E94EE220E94DF2131
:103B5000B801CE010E94791BDF91CF911F910F9187
:103B60000895CF93DF93EC01988189812B813C816B
:103B7000232B31F08F3F31F481E09F3F19F403C0D4
:103B800081E001C080E080FD19C0CE010E94CF0914
:103B900081110CC00E94C023882381F08A81882370
:103BA00069F082E0DF91CF910C945F24CE010E94F6
:103BB000991DCE01DF91CF910C94A409DF91CF9193
:103BC00008950E94E7230E94F7230E9415240E9473
:103BD000BF290E948E2880E090E00E94041980E0B6
:103BE00090E00C941A1980911701909118010E948D
:103BF000E1250C94E11D0E94D7230C94F31DE92FBD
:103C0000E295EF704E2F50E0FA013297EE30F10559
:103C1000B0F4E658FF4F0C940D31803F91F018F44A
:103C2000883E68F40EC0843F51F40BC0883E48F0D3
:103C3000813F29F406C093FB882780F9089580E02E
:103C4000089581E008950E9488230E94FF1D089531
:103C5000CF93DF9300D000D01F92CDB7DEB70F9087
:103C60000F900F900F900F90DF91CF910895CF9309
:103C7000DF9300D000D000D0CDB7DEB726960FB6C8
:103C8000F894DEBF0FBECDBFDF91CF9108951F9393
:103C9000CF93DF93C0915B0216E080915C02C8175E
:103CA00099F0D0E01C9FF0011D9FF00D1124E35A04
:103CB000FD4F4081518162817381848195810E9491
:103CC000371E2196C770E9CFDF91CF911F910895DC
:103CD00040918D0250918E0260918F0270919002FE
:103CE00080919102909192020C94371E0F931F9332
:103CF000CF93DF938091920282958F7009F05DC01F
:103D000080918F02882309F458C080915B02109142
:103D10005C0260918D0270918E02C0919002D091F0
:103D2000910291E06F3F09F090E0292F06E08117A2
:103D300009F443C0209721F07F3F21F030E003C019
:103D400031E001C0322F90E030FD34C0089FF00117
:103D5000099FF00D1124DF01A35ABD4F11963C912C
:103D60001197371327C03C91361324C012963C910B
:103D7000129731111FC013964D915C9114974C1BF3
:103D80005D0B483C5105B0F4809192028F708061C8
:103D900080939202EE59FD4F80818F708061808305
:103DA0008DE892E00E94B11DDF91CF911F910F919C
:103DB0000C94471E01968770BACFDF91CF911F9167
:103DC0000F9108959F92AF92BF92CF92DF92EF92A0
:103DD000FF920F931F93CF93DF93CDB7DEB7619719
:103DE0000FB6F894DEBF0FBECDBF8C0185E0F801A1
:103DF000DE011D9601900D928A95E1F7F801408150
:103E00005181E28090918D0260918E02209190020A
:103E1000309191022115310531F06F3F31F481E08D
:103E20009F3F19F403C081E001C080E0F82FF170DA
:103E30009F2E80FD46C1F801A380B4808DE8C82E76
:103E400082E0D82EF0908F02F501E21BF30BFF20E9
:103E500009F4DFC080919202E83CF10508F09BC0B4
:103E6000282F207F09F052C0561313C0491311C0E8
:103E7000FE2CE1100EC08F708061809392020E9430
:103E8000681EC6010E94B11D80919202F8018583CF
:103E900058C1AB2831F05F3F31F481E04F3F19F456
:103EA00003C081E001C080E080FD03C081E08E2579
:103EB00002C080E090E0F82FF170FF2E80FF1CC060
:103EC00080915B0220915C0236E0821709F417C1F1
:103ED00090E0389FF001399FF00D1124E35AFD4F17
:103EE0006181561306C06081461303C06281E612E9
:103EF00003C001968770E9CFFE2CEE2009F421C1A2
:103F0000809192028160809392025AC0561306C03B
:103F1000491304C0E11002C0F8019FC04D875E87BD
:103F20008D859E850E94231E882379F1EE2069F1FC
:103F300020919202822F82958F7090E0029774F008
:103F400080918D0290918E0298878F831986BB860F
:103F5000AA862C87CE0107960E94B11D86E0F80143
:103F6000ADE8B2E001900D928A95E1F70E94761ECD
:103F70000E94681E0DC0561729F14D875E878D85FA
:103F80009E850E94231E81112CC0C8010E94B11D74
:103F9000FF24F394D6C0282F207F69F77A2DB98AA1
:103FA000A88A6E2D89890E94281E8DE892E00E94C1
:103FB000B11D86E0F60111928A95E9F70E94681E0C
:103FC000F12CBFC04913D9CFE110D7CFF8018583B9
:103FD000C8010E94B11D86E0F60111928A95E9F7A9
:103FE000B0C0EE2091F220919202822F82958F70C4
:103FF00090E002970CF4B2CF80918D0290918E02E6
:104000009A8389831B82BD82AC822E83CE01019666
:10401000A3CFE83CF10508F047C0FE2CEE2009F4E0
:10402000B4CF561330C049132EC02091920220FD08
:1040300021C0822F82958F70482F50E04115510585
:10404000C9F0F80125834F30510541F08F5F982F5B
:104050009295907F822F8F70892B8583C8010E9453
:10406000B11D86E0F801ADE8B2E001900D928A95AD
:10407000E1F742C086E0F801ADE8B2E001900D92B0
:104080008A95E1F75EC04D875E878D859E850E948B
:10409000231E811163CF80919202816080939202EE
:1040A000C8010E94B11D4DC07A2DB98AA88A6E2D13
:1040B00089890E94281E86E0F60111928A95E9F707
:1040C0001BC0EE2009F461CF4D875E878D859E85EC
:1040D0000E94231EF82E882309F457CF86E0F801AA
:1040E000ADE8B2E001900D928A95E1F78DE892E09B
:1040F0000E94401A0E94761E0E94681E22C04D87B0
:104100005E878D859E850E948823292F22952F709A
:10411000223028F49F7039F0811105C00BC0243083
:1041200028F49F7049F4805E883020F0C8010E9416
:10413000B11D9F2CF92C05C0F8019581907F99F74E
:10414000F9CF8F2D61960FB6F894DEBF0FBECDBFAD
:10415000DF91CF911F910F91FF90EF90DF90CF9063
:10416000BF90AF909F9008951F93CF93DF93CDB7EB
:10417000DEB72C970FB6F894DEBF0FBECDBF4F83CE
:10418000588769877A878B879C87CE0107960E941C
:10419000E21E8823D1F09F8188852A853B85232BC9
:1041A00031F08F3F31F481E09F3F19F403C081E08B
:1041B00001C080E080FD47C04F81588569857A85C0
:1041C0008B859C850E94371E3EC086E0FE01379697
:1041D000DE01119601900D928A95E1F7FF81E88545
:1041E0006A857B856115710531F0EF3F31F481E01F
:1041F000FF3F19F403C081E001C080E080FD23C0CF
:1042000020915C0230E0C9010196877099274091A6
:104210005B0250E084179507F1F1F983EA837D830F
:104220006C8396E0929FD001939FB00D1124A35A06
:10423000BD4FFE01319601900D929A95E1F7809362
:104240005C020E94471E16E080915B0290915C0226
:10425000891771F1189FC0011124835A9D4F0E9444
:10426000E21E882329F1E0915B021E9FF0011124D8
:10427000E35AFD4F40815181628173818481958130
:104280000E94371E80915B0290E00196877099270B
:1042900080935B02D9CF0E94FB1D10925C021092AA
:1042A0005B02EDE8F2E086E0DF011D928A95E9F716
:1042B0002C960FB6F894DEBF0FBECDBFDF91CF9125
:1042C0001F910895EF92FF920F931F93CF93DF9367
:1042D0008C01892B09F46CC0F12CEE24E394E801E5
:1042E0002196F8018491843740F4843008F051C05D
:1042F000813081F0823019F15BC0853709F444C008
:10430000A8F19CE7980F903708F052C08F770E9471
:10431000F01A41C00E5F1F4FFE01849190E2980F8A
:10432000983050F48770FE2D01C0FF0F8A95EAF790
:104330008F2F0E94EA2314C00E94461A2DC00E5FE0
:104340001F4FFE01849190E2980F983060F48770BF
:10435000FE2D01C0FF0F8A95EAF78F2F0E94F023F0
:104360000E94152419C00E94F01A16C00E5F1F4F3C
:10437000FE01C491CC2381F08FE99FE00197F1F712
:1043800000C00000C150F6CF0E5F1F4FFE01F49039
:1043900003C00E94461A8E018F2D882309F49FCFF7
:1043A000EFE9FFE03197F1F700C000008150F5CF51
:1043B000DF91CF911F910F91FF90EF900895089595
:1043C00008950C94E0210C94E1210E94E321609374
:1043D000DD027093DE028093DF029093E0020C9482
:1043E000E11D0C94E5210F931F930091DD021091C4
:1043F000DE022091DF023091E002602B712B822BD4
:10440000932B1F910F910C94E5210F931F93009113
:10441000DD021091DE022091DF023091E002602384
:104420007123822393231F910F910C94E5210F9305
:104430001F930091DD021091DE022091DF02309186
:10444000E00260277127822793271F910F910C9418
:10445000E5210C94E0210E9429226093D9027093F7
:10446000DA028093DB029093DC020C94E11D60E0A1
:1044700070E0CB010C942B220F931F9341E050E08E
:1044800060E070E08A019B0104C0000F111F221F31
:10449000331F8A95D2F7C901B8011F910F910C946F
:1044A0002B220F931F9341E050E060E070E004C0C6
:1044B000440F551F661F771F8A95D2F78091D90246
:1044C0009091DA02A091DB02B091DC028A019B019B
:1044D000082B192B2A2B3B2BC901B8011F910F91D7
:1044E0000C942B220F931F9341E050E060E070E0AA
:1044F00004C0440F551F661F771F8A95D2F7409559
:104500005095609570958091D9029091DA02A091B2
:10451000DB02B091DC028A019B01082319232A23C4
:104520003B23C901B8011F910F910C942B220F93CB
:104530001F9341E050E060E070E004C0440F551F5D
:10454000661F771F8A95D2F78091D9029091DA027F
:10455000A091DB02B091DC028A019B010827192798
:104560002A273B27C901B8011F910F910C942B22D8
:104570000F931F930091D9021091DA022091DB0270
:104580003091DC02602B712B822B932B1F910F91AA
:104590000C942B220F931F930091D9021091DA02F1
:1045A0002091DB023091DC0260237123822393236C
:1045B0001F910F910C942B220F931F930091D902FE
:1045C0001091DA022091DB023091DC026027712722
:1045D000822793271F910F910C942B22089529E095
:1045E000929F800D1124E82FE695E695E695877059
:1045F00051E001C0550F8A95EAF785E0E89FF00188
:104600001124ED56FD4F20E030E070E04081CB01F9
:10461000022E02C0969587950A94E2F781708195E3
:1046200084278523842781932F5F3F4F25303105D1
:1046300069F7089529E0929F800D1124682F6695EF
:1046400066956695982F977085E0689FB001112454
:1046500040E050E080E0FB01E40FF51FED56FD4F18
:10466000208130E0092E02C0369527950A94E2F7A2
:1046700021703327042E01C0220F0A94EAF7822BFF
:104680004F5F5F4F4530510531F70895BF92CF928C
:10469000DF92EF92FF920F931F93CF93DF938C01E2
:1046A000C090D902D090DA02E090DB02F090DC02F8
:1046B0008091DD029091DE02A091DF02B091E002D4
:1046C000C82AD92AEA2AFB2ACFE1D0E0D701C601BD
:1046D0000C2E04C0B695A795979587950A94D2F7A6
:1046E00080FD04C0219790F7B12C07C0BC2EB80103
:1046F0008C2F0E94640A0197A9F38B2DDF91CF9133
:104700001F910F91FF90EF90DF90CF90BF90089591
:10471000CF93DF93EC010E944623BE010E94640AFE
:10472000DF91CF9108951F93CF93DF93EB01909189
:104730005A02992321F0CB010E94882313C08823B9
:1047400049F0CB010E944623182F682FCE010E940A
:10475000EF2204C0CB010E941A23182FBE01812F23
:104760000E94640ADF91CF911F9108958091E10228
:1047700085958595859508958091E10287700895C6
:104780009091E102977081E009F480E008958091B2
:104790000503089590910503892B809305030895DF
:1047A00080959091050389238093050308951092C5
:1047B0000503089590910403892B809304030895C1
:1047C00080959091040389238093040308951092A7
:1047D0000403089590910303892B809303030895A4
:1047E0008095909103038923809303030895109289
:1047F000030308958091E202089508950C94FD2327
:104800000C94FE239091E202981721F08093E2022B
:104810000C94002408958091E202882329F01092DC
:10482000E20280E00C9400240895E0911701F091D9
:104830001801809105038083E0911701F091180120
:10484000908180910403892B8083E0911701F0917E
:104850001801908180910303892B80838091E2026B
:10486000882381F0E0911701F09118019081892B44
:10487000808380911701909118010E943525811144
:104880000E940B2480911701909118010C94DC1860
:104890000C94FD2398E0899F90011124262B2093EE
:1048A000E1020E9451228091E102859585958595CE
:1048B0000C9448241092E10280E00C94482420914A
:1048C000E102809582238093E102982F977079F41A
:1048D00030E0482F082E000C550B2417350739F00F
:1048E0008595859585950E9472220C945A24089589
:1048F0006FEF7FEF80E090E00C94DF3180E090E09C
:104900000E94BB3121E08C3E9E4F09F020E0822FB7
:10491000089582E090E00C94AD3183E090E00C9437
:10492000AD31CF9384E090E00E94AD31C82F81E299
:1049300090E00E94AD312C2F30E0A901582BCA0124
:10494000CF910895CF93C92F682F84E090E00E9403
:10495000C1316C2F81E290E0CF910C94C13186E09F
:1049600090E00C94AD31682F86E090E00C94C1315A
:10497000AB01BC018FE090E00C94D331AB01BC01E2
:1049800083E190E00C94D33160E070E0CB010C94B3
:10499000BE2460E070E0CB010E94B8240C94C424D3
:1049A0006CEE7EEF80E090E00E94DF3160E082E01C
:1049B00090E00E94C13160E083E090E00E94C1314C
:1049C0001092DD021092DE021092DF021092E002DD
:1049D00060E084E090E00E94C13160E081E290E01C
:1049E0000E94C13160E085E090E00E94C13160E04A
:1049F00086E090E00E94C1316FEF87E090E00E9476
:104A0000C13140E050E0BA0188E090E00E94D3312B
:104A100060E08DE090E00E94C13140E050E0BA01DA
:104A200088E190E00E94D33160E087E190E00E944D
:104A3000C13140E050E0BA018CE190E00E94D331F6
:104A400060E080E290E00E94C13140E050E0BA01B5
:104A500088E190E00E94D3310C94C9240C94D024B6
:104A6000682F8EE090E00C94C131FC013296809169
:104A70002B01882331F08091A70387FF02C09EE1BC
:104A800001C096E080E0915028F021912223D9F3D3
:104A90008F5FF9CF0895662351F120912B012223D6
:104AA000E9F02091A70327FF19C0462F46954695A8
:104AB00046954E31E0F4677021E030E002C0220FED
:104AC000331F6A95E2F7FC01E40FF11D828190E04B
:104AD0002823392381E0232B69F409C0FC01329695
:104AE00008962191621729F0E817F907D1F780E0BD
:104AF000089581E008959C01FC0132969FEF80E0CB
:104B00004191461789F09F3F19F4411101C0982F38
:104B10008F5F8630A9F79F3F39F0F901E90FF11D4A
:104B200097FDFA956283089508959C012A5F3F4F8F
:104B3000FC014281461301C012820196821793073D
:104B4000B9F70895262F2695269526952E3168F4D7
:104B5000FC01E20FF11D677021E030E001C0220F7F
:104B60006A95EAF78281282B22830895262F2695BD
:104B7000269526952E3170F4FC01E20FF11D677029
:104B800021E030E001C0220F6A95EAF7209582818A
:104B900028232283089520912B01222329F020919C
:104BA000A70327FD0C94A2250C947B2520912B01B3
:104BB000222329F02091A70327FD0C94B6250C94FD
:104BC000952520912B01FC013296222331F0809112
:104BD000A70387FF02C08EE101C086E0DF011D92BE
:104BE0008A95E9F7089508950C94F3250C94F3251C
:104BF000CF930E94F6250E94A90C0E94F425C0E0E4
:104C00008C2F0E94530C892B29F4CF5FCC30C1F735
:104C100080E001C081E0CF9108950C94F3250C94BD
:104C20000D260E940F268091AD03843061F1109211
:104C3000070320E488E190E00FB6F894A8958093EC
:104C400060000FBE2093600080E00E94051680E0A7
:104C50000E943C0A0E940F2683B7817F846083BF35
:104C600083B7816083BF7894889583B78E7F83BF35
:104C70000FB6F894A89580916000886180936000D9
:104C8000109260000FBE08950C94F3250E94FB1D46
:104C90000E94F6140E94D0180E943C0A0C944426EC
:104CA0001F920F920FB60F9211248F939F93AF9381
:104CB000BF9380910703811113C08091A30390914A
:104CC000A403A091A503B091A6034196A11DB11D17
:104CD0008093A3039093A403A093A503B093A6038A
:104CE000BF91AF919F918F910F900FBE0F901F902A
:104CF000189582E084BD93E095BD9AEF97BD8093AF
:104D00006E0008952FB7F8948091A3039091A403A7
:104D1000A091A503B091A6032FBF08959C014FB7A2
:104D2000F8948091A3039091A403A091A503B0915E
:104D3000A6034FBF821B930B089578941F920F9286
:104D40000FB60F9211248F939F93AF93BF938091CF
:104D5000A3039091A403A091A503B091A60301968B
:104D6000A11DB11D8093A3039093A403A093A50359
:104D7000B093A603BF91AF919F918F910F900FBEFB
:104D80000F901F90189581E08093E00080E280935F
:104D9000D8001092C9008FE19EE40197F1F700C09E
:104DA000000087E090EBDC018093B6039093B7039B
:104DB000A093B803B093B9039CE088E10FB6F894D0
:104DC000A895809360000FBE90936000FFCF0C9475
:104DD00078240E94A90C8FE39CE90197F1F700C0A9
:104DE00000000E94A90C85E00E94530C80FF04C0C3
:104DF0000E94E7260C94C32608950E947E24811108
:104E000002C00E942E250E948924809306030E94DE
:104E100091249093A8038093A7030E948D24682F68
:104E200070E080E090E00E94F1216091D9027091E1
:104E3000DA028091DB029091DC020C9429228091AD
:104E40000E0380FF0BC060911E0185E0689FB001DA
:104E5000112475956795759567952BC081FF09C0DD
:104E600060911E0185E0689FB001112475956795DA
:104E700020C082FF07C060911E0185E0689FB001DD
:104E8000112417C090910D039923D1F060911D0159
:104E9000961788F720911E0185E0289F9001112424
:104EA000929FA001939F500D112470E0CA010E94AF
:104EB000D7306038710540F46115710519F406C0EA
:104EC00065E070E0862F08958FE7089581E00895EA
:104ED00080910E0380FF08C060911A0170E0759503
:104EE00067957595679521C081FF06C060911A018D
:104EF00070E07595679519C082FF04C060911A0132
:104F000070E010C090910C03992399F06091190101
:104F10009617A0F780911A01899FC001112470E0B3
:104F20000E94D7306038710540F46115710519F49D
:104F300006C061E070E0862F08958FE7089581E054
:104F40000895803F21F40E941F27819504C0813F6E
:104F500029F40E941F27809312030895823F21F4B1
:104F60000E941F27819504C0833F29F40E941F27B8
:104F7000809311030895893F19F40E94682705C0A2
:104F80008A3F31F40E946827819580931303089526
:104F90008B3F21F40E946827819504C08C3F29F43F
:104FA0000E946827809314030895843F21F4809120
:104FB0001003816017C0853F21F480911003826047
:104FC00011C0863F21F48091100384600BC0873F9D
:104FD00021F480911003886005C0883F31F48091EE
:104FE000100380618093100308958D3F21F4809118
:104FF0000E0381600BC08E3F21F480910E0382600E
:1050000005C08F3F29F480910E03846080930E03C6
:105010000895803F39F48091120387FF6AC010928F
:10502000120367C0813F29F4809112031816BCF364
:1050300060C090911103823F29F497FF5AC01092EB
:10504000110357C0833F19F41916CCF352C0909145
:105050001303893F31F419160CF04BC0109213035F
:1050600048C08A3F19F497FF44C0F8CF8B3F39F40A
:105070008091140387FF3DC0109214033AC08C3F07
:1050800029F4809114031816BCF333C0843F21F433
:10509000809110038E7F17C0853F21F4809110030B
:1050A0008D7F11C0863F21F4809110038B7F0BC050
:1050B000873F21F480911003877F05C0883F31F43A
:1050C000809110038F7E8093100313C08D3F21F4D5
:1050D00080910E038E7F0BC08E3F21F480910E03D2
:1050E0008D7F05C08F3F29F480910E038B7F8093C5
:1050F0000E0380911103811106C08091120381116A
:1051000002C010920D0380911303811106C080919B
:105110001403811102C010920C0308950E9482268C
:1051200020911103211104C020911203222321F0A8
:1051300090930B0380930A0320911303211104C061
:1051400020911403222321F09093090380930803F4
:105150008FE093E00C94F618EF92FF920F931F9359
:10516000CF93DF9300D000D000D0CDB7DEB786E07C
:10517000EFE0F3E0DE01119601900D928A95E1F7E0
:10518000E0901103F09012030091130310911403A7
:105190001092110310921203109213031092140331
:1051A000E11003C0FF2009F45DC080910A039091D3
:1051B0000B030E948E26AC0190910D03992339F0C8
:1051C00020911F0130E02417350758F04BC0209183
:1051D00020018AE0289F900111242417350718F038
:1051E00041C09F3F19F09F5F90930D03EE2061F047
:1051F0000E941F271E1414F09FEF01C091E0989F9A
:10520000902D112490931103FF2061F00E941F271D
:105210001F1414F09FEF01C091E0989F902D11246E
:1052200090931203309111033323E1F02091120384
:105230002223C1F045EB3403C0011124992319F056
:105240009093110303C081E08093110335EB230396
:10525000C0011124992319F09093120303C081E037
:1052600080931203011103C0112309F45DC08091E2
:105270000803909109030E948E26AC0190910C03C3
:10528000992339F020911B0130E02417350758F09D
:105290004BC020911C018AE0289F90011124241703
:1052A000350718F041C09F3F19F09F5F90930C03A2
:1052B000002361F00E946827101614F09FEF01C0D0
:1052C00091E0989F902D112490931303112361F086
:1052D0000E946827111614F09FEF01C091E0989F7B
:1052E000902D112490931403309113033323E1F094
:1052F000209114032223C1F045EB3403C001112493
:10530000992319F09093130303C081E08093130352
:1053100035EB2303C0011124992319F09093140352
:1053200003C081E0809314038091110381110BC0AD
:1053300080911203811107C080911303811103C072
:105340008091140381110E948E28EB82FC820D83D0
:105350001E8386E0FE013196AFE0B3E001900D922E
:105360008A95E1F726960FB6F894DEBF0FBECDBF43
:10537000DF91CF911F910F91FF90EF900895EFE093
:10538000F3E086E0DF011D928A95E9F710920D03A4
:1053900010920C0310920E03089580913503089526
:1053A000CF93DF9300D01F92CDB7DEB79091AD03BE
:1053B000943019F589837B836A8382E08093E900C6
:1053C0008FEF9091E800815095FD06C095ED9A957C
:1053D000F1F700008111F5CF8091E80085FF0DC045
:1053E00040E050E063E070E0CE0101960E94FB2BAC
:1053F0008091E8008E778093E8000F900F900F90D7
:10540000DF91CF910895BC0184E00C94D029BC01B8
:1054100083E00C94D02922E02093E9002FEF309113
:10542000E800215035FD06C035ED3A95F1F7000052
:105430002111F5CF2091E80025FF0BC040E050E09E
:1054400066E070E00E94FB2B8091E8008E778093ED
:10545000E8000895CF93DF9320912B01222339F0A8
:105460002091A70327FF03C060E222E002C068E0AA
:1054700021E02093E9002FEF3091E800215035FD25
:1054800006C035ED3A95F1F700002111F5CF2091D6
:10549000E80025FF1DC0EC0180912B01811105C0A2
:1054A00040E050E068E070E003C070E040E050E0B1
:1054B000CE010E94FB2B8091E8008E778093E8005C
:1054C00080E2FE01A5E1B3E001900D928A95E1F73B
:1054D000DF91CF9108958091AC03811109C00E94A2
:1054E0008C2D0E94E92D8091E20084608093E2007F
:1054F00008951092AC030895089508950C944626DB
:1055000042E061EC81E00E94052D42E261EC82E024
:105510000C94052D8091AF03833009F460C030F402
:10552000813071F0823009F499C008958A3009F40D
:1055300085C08B3009F46BC0893009F0A7C020C04A
:105540008091AE03813A09F0A1C08091E800877F85
:105550008093E8008091B2039091B303892B21F4EA
:1055600060E285E193E003C060E080E090E070E0FD
:105570000E94462C8091E8008B778093E800089584
:105580008091AE03813209F081C08091B203909185
:10559000B303029708F07AC08091E800877F809378
:1055A000E8008091E80082FD05C08091AD03811183
:1055B000F8CF6CC02091F3008091F20090E0922B24
:1055C000029729F48091F1008B7F813021F4809142
:1055D000F100809335038091E8008B7753C0809170
:1055E000AE03813A09F052C08091B2039091B303A7
:1055F000892B09F04BC08091E800877F8093E800F9
:105600008091E80080FFFCCF80912B0136C0809113
:10561000AE038132D9F58091B2039091B303892B07
:10562000A9F58091E800877F8093E8000E943A2DD9
:105630008091B00380932B010C94FB1D8091AE03ED
:10564000813221F58091E800877F8093E8000E94F5
:105650003A2D8091B1038093360308958091AE0373
:10566000813AA1F48091E800877F8093E8008091DF
:10567000E80080FFFCCF809136038093F100809199
:10568000E8008E778093E8000C943A2D089584B753
:10569000877F84BF0FB6F894A895809160008861D9
:1056A00080936000109260000FBE90E080E80FB61B
:1056B000F89480936100909361000FBE0E94481996
:1056C0000E948C2D0E94E92D8091E20084608093DD
:1056D000E20078940E947E300E944E1981E291E0AF
:1056E0000E94CB188091AD03853069F40E94112689
:1056F0008091AB038823B1F30E94F825882391F3AE
:105700000E94E52BEFCF0E945A190E943C190E947B
:105710003B19E8CF0C948C2B292F332723303105EC
:10572000C9F060F42130310581F02230310509F0F3
:1057300044C08BE390E022EE30E143C021323105DA
:10574000E1F02232310549F138C082E190E02DE1EB
:1057500031E137C099278130910549F028F002974F
:1057600061F5EEEBF0E105C0EEEDF0E102C0E2ED37
:10577000F0E1849190E09F0124C06115710541F032
:1057800061307105D1F489E090E02DE031E119C07C
:1057900089E090E024EF30E114C06115710541F01B
:1057A0006130710551F48CEB90E02FE231E109C0DA
:1057B00080E490E02BEE31E104C080E090E020E056
:1057C00030E0FA0131832083089580E189BD82E1D0
:1057D00089BD09B400FEFDCF8091D8008F7D8093F4
:1057E000D8008091E00082608093E0008091E0002A
:1057F00081FDFCCF0895CF92DF92EF92FF920F933D
:105800001F93CF93DF93EC018B017A010E94592DF6
:10581000811133C0E114F10439F0F70180819181E5
:10582000081B190BC80FD91FC12CD12C011511054C
:1058300019F18091E80085FD16C08091E8008E770F
:105840008093E800E114F10449F0F701808191812F
:10585000C80ED91ED182C08285E00FC00E94592D8A
:10586000882321F30AC089918093F1000150110926
:10587000FFEFCF1ADF0ADACF80E0DF91CF911F91DF
:105880000F91FF90EF90DF90CF9008952091B40397
:105890003091B5032617370748F06115710539F4C3
:1058A0002091E8002E772093E80001C0B901FC01A7
:1058B00020E06115710579F18091AD038823F1F144
:1058C0008530F1F18091E80083FD3CC08091E800D3
:1058D00082FD2EC08091E80080FFEBCF2091F30085
:1058E0008091F20090E0922B6115710551F08830A3
:1058F000910538F421912093F100615071090196CE
:10590000F3CF21E0089709F020E08091E8008E773E
:105910008093E800CECF2111CFCF0AC08091AD0394
:10592000882361F0853061F08091E80083FD0AC032
:105930008091E80082FFF2CF80E0089582E0089530
:1059400083E0089581E008952091B4033091B50378
:105950002617370748F06115710539F42091E800E2
:105960002E772093E80001C0B901FC0120E0611509
:10597000710591F18091AD03882309F440C0853011
:1059800009F43FC08091E80083FD3DC08091E800AC
:1059900082FD2FC08091E80080FFE9CF2091F300C5
:1059A0008091F20090E0922B6115710559F08830DA
:1059B000910540F424912093F100319661507109D2
:1059C0000196F2CF21E0089709F020E08091E800ED
:1059D0008E778093E800CBCF2111CCCF0AC0809185
:1059E000AD03882361F0853061F08091E80083FD8C
:1059F0000AC08091E80082FFF2CF80E0089582E043
:105A0000089583E0089581E00895982F973068F510
:105A10009093E900981739F07091EC002091ED0017
:105A20005091F00003C0242F762F50E021FD02C0DA
:105A30009F5FECCF3091EB003E7F3093EB003091D5
:105A4000ED003D7F3093ED003091EB0031603093FD
:105A5000EB007093EC002093ED005093F000209148
:105A6000EE0027FDE5CF80E008958F708093E90078
:105A700081E008958091AE0387FF11C08091E80016
:105A800082FD05C08091AD038111F8CF11C08091D6
:105A9000E8008B770BC08091AD03882349F080919B
:105AA000E80080FFF8CF8091E8008E778093E800CF
:105AB00008952091E4003091E50095E64091EC00D6
:105AC000842F817040FF23C08091E80080FD1DC0BD
:105AD0008091AD03882399F0853099F08091EB0097
